:020000040800F2
:10000000681A0020A1010008A9010008AB0100083E
:10001000AD010008AF010008B101000800000000B8
:10002000000000000000000000000000B301000814
:10003000B501000800000000B7010008B901000880
:10004000BB010008BB010008BB010008BB010008A0
:10005000BB010008BB010008BB010008BB01000890
:10006000BB010008BB01000801290008BB01000812
:10007000BB010008BB010008BB010008BB01000870
:10008000BB010008BB010008BB010008BB01000860
:10009000BB010008BB010008BB010008BB01000850
:1000A000A1460008C1460008BB010008BB010008CA
:1000B000ED460008BB010008BB010008BB010008B9
:1000C000BB010008BB010008BB010008BB01000820
:1000D000BB010008ED4B0008494C0008BB010008BB
:1000E000BB010008BB010008BB010008BB01000800
:1000F000BB010008BB010008BB010008BB010008F0
:10010000BB010008BB010008BB010008BB010008DF
:10011000DD4B0008BB0100082547000851470008D7
:10012000BB010008BB010008BB010008BB010008BF
:10013000BB010008BB010008BB010008BB010008AF
:10014000BB010008BB010008BB010008BB0100089F
:10015000BB010008BB010008BB010008754D000889
:10016000BB010008BB010008BB010008BB0100087F
:10017000BB010008BB010008BB010008BB0100086F
:10018000BB010008BB010008DFF810D000F0C2F985
:1001900000480047116F0008AFF30080681A002084
:1001A0000648804706480047FEE7FEE7FEE7FEE711
:1001B000FEE7FEE7FEE7FEE7FEE7FEE7394600085A
:1001C0008901000840EA01039B0703D009E008C940
:1001D000121F08C0042AFAD203E011F8013B00F80C
:1001E000013B521EF9D27047D2B201E000F8012B58
:1001F000491EFBD270470022F6E710B513460A46A7
:1002000004461946FFF7F0FF204610BD2DE9F04DDA
:1002100081EA030404F0004B21F0004514464FF03E
:10022000000A23F0004150EA050220D054EA0102FE
:100230001DD0C5F30A570246C5F31303C1F31300DB
:10024000C1F30A5640F4801543F48013A7EB060867
:10025000101BD64608F2FD3873EB050002D308F1F7
:10026000010801E092185B41B8F1000F03DA0020A9
:100270000146BDE8F08D00204FF48011064684460B
:100280000EE0171B73EB050705D3121B63EB050389
:1002900006434CEA010C49084FEA300092185B41D2
:1002A00050EA0107EDD152EA030012D082EA0400BD
:1002B00083EA0501084305D0101BAB4106D2012299
:1002C000002306E000224FF0004302E06FF001023D
:1002D00053101AEB06004CEB085110EB0A0041EBEF
:1002E0000B01BDE8F04D00F0B8B80EB5C10F80EAC3
:1002F000E0700844CA07002140F233438DE80E0045
:100300000A460B4600F0B8F803B000BD00F000420A
:1003100030F000400AD0C10D01F56071C0F3160045
:1003200042EA0151C20840071143704700200146CC
:10033000704701F0004330B421F0004150EA01025F
:1003400006D00A0DA2F56072C1F31301002A02DC87
:1003500030BC00207047440F44EAC104C100E018DB
:1003600030BC00EBC25000F041B82DE9F05F05460B
:10037000002092469B4688460646814640241BE064
:10038000284641464746224600F020F853465A4642
:10039000C01A914110D311461846224600F0CCF8FD
:1003A0002D1A67EB01084F4622460120002100F07C
:1003B000C3F817EB00094E41201EA4F10104DFDC55
:1003C000484631462A464346BDE8F09F202A04DBD2
:1003D000203A21FA02F00021704721FA02F3D040BE
:1003E000C2F1200291400843194670470029A8BF76
:1003F0007047401C490008BF20F00100704710B44E
:10040000B0FA80FC00FA0CF050EA010404BF10BC02
:10041000704749B1CCF1200421FA04F411FA0CF12F
:1004200018BF012121430843A3EB0C01CB1D4FEA68
:1004300000614FEA102042BF002010BC704700EB63
:10044000C35010440029A4BF10BC7047401C490091
:1004500008BF20F0010010BC704710B5141E73F1E6
:10046000000408DA401C41F1000192185B411A4374
:1004700001D120F0010010BD2DE9F04D92469B46C0
:1004800011B1B1FA81F202E0B0FA80F22032904666
:1004900000F052F804460F4640EA0A0041EA0B0118
:1004A00053465A46084313D0114653EA010019D067
:1004B000C8F140025046FFF789FF05460E465046F8
:1004C0005946424600F038F8084305D0012004E0C0
:1004D00020463946BDE8F08D0020054346EAE07627
:1004E0002C4337430A986305E40AA0EB0800002276
:1004F000FD0A44EA47540A3002D500200146E9E7E4
:10050000010510196941DDE9084500196941BDE897
:10051000F04DA2E7064C074D06E0E06840F001030D
:1005200094E8070098471034AC42F6D3FFF730FE4A
:100530006473000884730008202A04DB203A00FA60
:1005400002F1002070479140C2F1200320FA03F32A
:1005500019439040704770B58D1810F8014B14F096
:10056000030201D110F8012B231106D110F8013B31
:1005700003E010F8016B01F8016B521EF9D1ABB129
:1005800010F8012B04F00C048A1A0C2C03D0A2EBF7
:1005900084129B1C08E010F8014BA2EB0422F8E740
:1005A00012F8014B01F8014B5B1EF9D5A942D4D3D7
:1005B000002070BDCA430260704721B1826842F0DA
:1005C0000102826003E0826822F0010282607047CB
:1005D0000021084A1168084A1140D0E900231A4353
:1005E00083681A43C3681A431143044AC2F80413C8
:1005F0007047000004230140E030FCFF0020014070
:1006000000B58DB00121084603F0E2FB012108028C
:1006100003F00EFC4020019003208DF8080000201C
:100620008DF80B0001A9174802F0A7FA00200390EB
:1006300004900690059003A8FFF7CAFF0121080265
:1006400003F006FC00214FF4807003F001FC002051
:100650008DF8200007908DF8210009900B90012063
:100660008DF8300007A9084800F01EF80623012283
:100670001946054800F042F801210348FFF79DFFA5
:100680000DB000BD00000240002001400146C86CD2
:1006900080B270470246002013680B400BB1012066
:1006A00000E000207047000030B502460020002323
:1006B0005068104C20400D790C6844EA0524204312
:1006C000506090680C4C2040D1E903542C438D6855
:1006D0002C434D7944EA450420439060D06A20F4CD
:1006E00070000C7D641EE4B2234340EA0350D062E4
:1006F00030BD0000FFFEFFFCFDF7FFC0F0B5044673
:100700000D4600200021092D11DDE068A5F10A0643
:1007100006EB4607072606FA07F18843A5F10A0605
:1007200006EB460603FA06F10843E0600CE0206998
:1007300005EB4507072606FA07F1884305EB450652
:1007400003FA06F108432061072A0FDA606B561E90
:1007500006EB86071F2606FA07F18843561E06EBAE
:10076000860605FA06F10843606322E00D2A0FDAD7
:10077000206BD61F06EB86071F2606FA07F1884373
:10078000D61F06EB860605FA06F10843206310E043
:10079000E06AA2F10D0606EB86071F2606FA07F1AE
:1007A0008843A2F10D0606EB860605FA06F108431A
:1007B000E062F0BD816841F08041816070470000D7
:1007C00070B50023224A1278082A03DA0022214C4D
:1007D00022703BE0002034E01F4A125C552A2ED1E3
:1007E0001D4CC21DA25CBB2A29D12546841C2D5D4F
:1007F000194EC41C345D2544041D345D2544441D3C
:10080000345D2A19D41702EB14642412A2EB0424D9
:10081000E3B23446821DA25C9A420DD1002105E06C
:100820000A180D4CA25C62544A1CD1B20829F7DBAD
:100830000122084C227002E00022064C2270421C69
:10084000D0B2034A1278D21F8242C5DA70BD0000CE
:10085000CC100020E2100020D814002010B500F0C9
:1008600009F8012003F0C6FD00200149086010BD11
:10087000BC0243421CB50121422003F0A9FA4020EA
:10088000009001208DF8040000208DF80600032060
:100890008DF8050069460A4802F06FF94FF40040F0
:1008A000009001208DF8040000208DF80600032040
:1008B0008DF805006946024802F05FF91CBD000092
:1008C0000004024010B503F013FC01200849086041
:1008D000022006F0E5FA0748D0F81C02C4B2002056
:1008E00003490860022006F0DBFA204610BD000034
:1008F000988240420080404270B5002403F0F8FB2B
:10090000012010490860002517E06006040E012050
:100910000C49091F0860022006F0C2FA0A48D0F804
:100920001C0208B1601CC4B200200649091F0860FF
:10093000022006F0B5FA681CC5B2082DE5DB20469A
:1009400070BD00009C8240420080404210B50446C9
:1009500003F0DEFB1CB101200A49086002E0002020
:100960000849086001200749091F0860022006F0B5
:1009700097FA00200449C1F89802022006F090FA84
:1009800010BD00009C8240420080404270B5044689
:1009900003F0BEFB00251BE004F080061EB1012021
:1009A0000E49086002E000200C4908606006040E51
:1009B00001200A49091F0860022006F071FA002090
:1009C0000749C1F89802022006F06AFA681CC5B20D
:1009D000082DE1DBFFF776FF70BD00009C824042EE
:1009E0000080404210B503F093FB012009490860E4
:1009F0000949C1F89802042006F052FA002005497E
:100A00000860042006F04CFA00200349C1F898025F
:100A100010BD00009C8240420080404210B503F0AF
:100A200077FB00200749086001200749C1F89802B8
:100A3000042006F035FA012002490860042006F07F
:100A40002FFA10BD9C8240420080404270B504469F
:100A5000002505211C4804F0FBF94FF4FA7006F05C
:100A6000F9F904F02DFC194908704FF4FA7006F0FA
:100A7000F1F94FF4FA7006F0EDF94FF4FA7006F060
:100A8000E9F924B90121202004F006FD03E0214604
:100A9000102004F001FD00200C49087013E0012033
:100AA00006F0D8F9681C85B204F00AFC0749087002
:100AB0000846007818B941F27070854203DD0025C0
:100AC0000248007870BDEAE7A5080020AA080020C7
:100AD00010B504F0F7F810BD10B504460B48844279
:100AE00009D10121480603F093F900214FF000706D
:100AF00003F08EF908E00121880603F089F900214E
:100B00004FF0806003F084F910BD000000640040E5
:100B100010B50021837A012202FA03F13D4A1268DE
:100B200042F001023B4B1A603A4A1C3212688A4377
:100B3000384B1C331A60027BCAB9364A0C32126831
:100B40008A43344B0C331A604288C38842EA034319
:100B5000304A4032847A42F834300288838842EA4C
:100B600003432C4A4032847A02EBC4025360027B76
:100B7000012A19D1274A0C3212680A43254B0C333B
:100B80001A604288038842EA0343224A4032847A48
:100B900042F83430C288838842EA03431D4A403217
:100BA000847A02EBC4025360C27A3AB9194A121D20
:100BB00012688A43174B1B1D1A6006E0154A121D66
:100BC00012680A43134B1B1D1A60028932B9114A7D
:100BD000143212688A430F4B14331A600289012AB7
:100BE00006D10C4A143212680A430A4B14331A60B5
:100BF000427B012A06D1074A1C3212680A43054B80
:100C00001C331A60034A126822F00102014B1A6079
:100C100010BD0000006600401AB143690B434361F8
:100C200002E043698B434361704730B502460020C0
:100C30000023146824F002041460146844F00104D2
:100C4000146000E05B1C546804F001041CB94FF60A
:100C5000FF74A342F6D1546804F001040CB90020DB
:100C60006CE08C79012C04D1146844F08004146089
:100C700003E0146824F080041460CC79012C04D1C2
:100C8000146844F04004146003E0146824F0400445
:100C900014600C7A012C04D1146844F02004146010
:100CA00003E0146824F0200414604C7A012C04D171
:100CB000146844F01004146003E0146824F0100475
:100CC00014608C7A012C04D1146844F00804146078
:100CD00003E0146824F008041460CC7A012C04D1D9
:100CE000146844F00404146003E0146824F004045D
:100CF00014608C78A407CD7844EA05640D7944EA41
:100D000005444D7944EA05540D886D1E2C43D46189
:100D1000146824F001041460002300E05B1C546894
:100D200004F001041CB14FF6FF74A342F6D15468DD
:100D300004F001040CB1002000E0012030BD0246A7
:100D4000002019B9D36803F0030006E0012903D19C
:100D5000136903F0030000E00020704710B500F5B0
:100D6000D87303EB01131B6803F004031372137AA7
:100D700053B900F5D87303EB01131B6840F2FF74FD
:100D800004EA5353136009E000F5D87303EB011331
:100D90001B686FF0604404EAD303536000F5D87316
:100DA00003EB01131B6803F00203537200F5D873C1
:100DB00003EB01135B6803F00F03937200F5D87324
:100DC00003EB01135B681B0AD37400F5D87303EBC4
:100DD00001139B68D37200F5D87303EB01139B6872
:100DE0001C0A147300F5D87303EB01139B681C0CE9
:100DF000547300F5D87303EB01139B681B0E9373B8
:100E000000F5D87303EB0113DB68D37300F5D873D7
:100E100003EB0113DB681C0A147400F5D87303EBB1
:100E20000113DB681C0C547400F5D87303EB011339
:100E3000DB681B0E937421B9C36843F02003C360C1
:100E400003E0036943F02003036110BD10B50246BF
:100E50000020936803F08063B3F1806F00D110E04D
:100E6000936803F00063B3F1006F01D1012008E043
:100E7000936803F08053B3F1805F01D1022000E05A
:100E80000420042874D002F5C07303EB00131B6820
:100E900003F0010402F5C07303EB00131C600B7A2E
:100EA0007BB94B7A0C8843EA445302F5C07404EBD7
:100EB00000142468234302F5C07404EB001423607B
:100EC00010E00B7A4C6843EAC4034C7A234302F5E2
:100ED000C07404EB00142468234302F5C07404EBCF
:100EE000001423608B7A03F00F038B7202F5C0733A
:100EF00003EB00135B6823F00F0402F5C07303EBF0
:100F000000135C6002F5C07303EB00135B688C7A1E
:100F1000234302F5C07404EB001463608B7B1C0652
:100F20004B7B44EA03440B7B44EA0323CC7A234300
:100F300002F5C07404EB0014A3608B7C1C064B7C90
:100F400044EA03440B7C44EA0323CC7B234302F5AD
:100F5000C07404EB0014E36002F5C07303EB0013EC
:100F60001B6843F0010402F5C07303EB00131C601F
:100F700010BD000010B50246002321B1012907D0A1
:100F800002290FD109E090681D4C00EA04030BE030
:100F900090681C4C00EA040306E090681A4C00EAD2
:100FA000040301E0002300BF00BF184C181BA3423C
:100FB00016D007DC83B16FF08060184470B102284E
:100FC00018D111E0B0F5007F10D0114C204448B189
:100FD000B0F5003F0ED10BE002230DE000230BE043
:100FE000002309E0002307E0012305E0012303E0DB
:100FF000012301E0002300BF00BFD8B210BD0000F4
:1010000003000004000300080000031000010008B2
:101010000001FFF72DE9F0410746884615460421F7
:10102000052001F0D5FB0021012004F00BFA8021FE
:101030000A2003F021F9002405E0395D092004F0BD
:1010400001FA601CC4B24445F7DB0321012004F01F
:10105000F9F9FF2400BF052002F0A8FF0646601E34
:10106000C4B21CB106F004000028F4D0222002F023
:101070009DFF2870212002F099FF68700020BDE8D4
:10108000F08100002DE9FF4705460E464FF0000AAB
:1010900006B10DB94FF0010A9448007800F00F0036
:1010A000032801DD4FF0010A90480078C0F30019D1
:1010B000BAF1000F19D000208DF80A008DF80B004E
:1010C00001208DF80C000020ADF80000ADF8020002
:1010D000ADF80400ADF80600ADF8080001208DF869
:1010E0000D006846FFF714FDFEE00020ADF8080093
:1010F00001208DF80D004FF000080024F2E07B483D
:10110000007800F00F0030B101283BD002287BD0DE
:10111000032874D19CE000208DF80B008DF80C00A2
:1011200035F824004B460022114600F0E1F8ADF8F6
:10113000020005EB840148884B460022114600F06E
:10114000D7F8ADF80600601CC0B20446B04213DA0E
:1011500035F824004B460022114600F0C9F8ADF8DE
:10116000000005EB840148884B460022114600F040
:10117000BFF8ADF8040004E00020ADF80600ADF8BB
:1011800004009CE001208DF80B0000208DF80C007D
:1011900035F824004B460022114600F0A9F8ADF8BE
:1011A0000200601CC0B20446B04207DA35F82400E1
:1011B0004B460022114600F09BF800E00020ADF8FD
:1011C0000600601CC0B20446B04207DA35F82400BD
:1011D0004B460022114600F08BF800E00020ADF8ED
:1011E0000000601CC0B20446B04209DA35F82400A1
:1011F0004B460022114600F07BF802E004E051E08B
:101200000020ADF804005AE000208DF80B0001200A
:101210008DF80C0035F824004B460022114600F0F2
:1012200081F80746B8B2ADF80200380CADF80000FE
:1012300005EB840148884B460022114600F072F805
:101240000746B8B2ADF80600380CADF8040036E039
:1012500001208DF80B008DF80C0035F824004B466A
:101260000022114600F05EF80746B8B2ADF8020061
:10127000380CADF80000601CC0B20446B04208DA79
:1012800005EB840148884B460022114600F04AF8DD
:1012900000E000200746B8B2ADF80600380CADF803
:1012A00004000CE00020ADF80200ADF80000ADF83D
:1012B0000600ADF8040034464FF0010A00BF00BF3D
:1012C0008DF80A806846FFF723FCB44202DA601CFE
:1012D000C4B200E007E008F10100C0B280460D286A
:1012E00000DB00E00BE700BFBDE8FF87580E0020E1
:1012F00010B50446C4F309040AB1102000E0002030
:1013000002460BB1082000E00020034613B1C1F3F0
:10131000C13000E00020014642EA4410184308436F
:1013200080B210BD10B50446C4F309040AB102200E
:1013300000E0002002460BB1042000E0002003463C
:1013400013B18803C00A00E00020014642EA44309D
:101350001843084310BD000010B500210148FFF7F5
:10136000EEFC10BD0064004070B50446002554B189
:1013700000210648FFF7E3FC054625B1224600217F
:101380000248FFF7EBFC284670BD000000640040F7
:101390002DE9F04706460C4617469846DDF82090A2
:1013A0004FF0000A15480760C0F804800020134978
:1013B0000872487208468472224631460B30FEF7A6
:1013C00001FF0E490E48FFF741FD0546042D09D0E7
:1013D0004FF0010A29460A48FFF7CCFD012801D148
:1013E0004FF0020ABAF1010F04DBB9F1000F01D08E
:1013F00089F800505046BDE8F08700007C120020BC
:10140000006400400448006800F0E05008B101208A
:1014100070470020FCE700000864004010B501E0C0
:1014200000F006F8FFF798FF0028F9D110BD000082
:1014300010B52448FFF798FF2248C07C20B101284E
:101440000AD0022818D10FE01E48827A00F10B0161
:101450001D4801F006FB24E01A48827A00F10B01D6
:101460001A4801F0FEFA1CE01648827A00F10B01DE
:10147000174801F0F6FA14E01248C07C03280FDB8D
:101480001048C07C06280BDC0E48C07CC01E1149E9
:1014900001EBC0000B490B310A68026049684160EA
:1014A00000BF00BF0748C07C062809DC0548C07C97
:1014B000094951F8200009490968084307490860AB
:1014C00010BD0000F0130020A4120020B412002070
:1014D000D41200200414002054720008780F002059
:1014E00000B5034A5178107801F008FE00BD0000F5
:1014F00004140020F8B5FFF785FF00285FD0002610
:10150000002559E02E4890F9000030B101280ED096
:1015100002281ED0032840D12DE000F05DF80746D8
:10152000002F03DB0126F8B200F07AF839E0082238
:101530002449254801F080FAC4B24CB10126234861
:1015400000234FF42072214600901E48FFF720FF31
:1015500027E008221B491E4801F06EFAC4B24CB1C4
:1015600001261A4800234FF428722146009015489E
:10157000FFF70EFF15E008221249164801F05CFA49
:10158000C4B24CB10126114800234FF470722146B9
:1015900000900C48FFF7FCFE03E0FF2008490870AC
:1015A00000BF00BF06480078401C40B204490870E4
:1015B00006B103E0681CC5B2042DA3DD00BFF8BD71
:1015C000AC0F00207C0F0020C4120020AD0F0020C3
:1015D000E4120020A41200204FF0FF30002109E0A7
:1015E00001EB8102054B13F822200AB148B203E057
:1015F0004A1CD1B20729F3DB00BF70472414002036
:10160000002007E0002100EB8002044B03F82210C9
:10161000411CC8B20728F5DB7047000024140020E5
:10162000F8B50446002004EB84050E4E06EB850554
:1016300000902B6904EB840506EB8505EA6804EB52
:10164000840516F8251004EB840506EB8505681C57
:10165000FFF79EFE002004EB8401324602F82100D1
:10166000F8BD0000241400202DE9F04104460F4687
:1016700015461E46DDF81880072C1ADA04EB8400A4
:101680000D4901F8205004EB84010B4A02EB810163
:10169000481C2A463946FEF795FD04EB84000649AE
:1016A00001EB8000C66004EB840001EB8000C0F811
:1016B0001080BDE8F08100002414002010B50D4A10
:1016C00032210D4800F02AF80C4A32210C4800F073
:1016D00025F80C4A32210C4800F020F80B4A322140
:1016E0000B4800F01BF80B4A32210B4800F016F8AB
:1016F00010BD0000F4120020A412002026130020C8
:10170000B412002058130020C41200208A130020B5
:10171000D4120020BC130020E412002070B504464F
:101720000E4615462660E5600021204601F0D3F9FB
:1017300070BD000038B5FFF771FE68E0FFF76EFE80
:10174000002462E0344850F8240034490968084015
:10175000002858D0072C4DD2DFE804F0040C1824E0
:101760002739460000BF69462D4801F0C6F9002818
:10177000F9D13FE003E09DF8000000F0DFFA694690
:10178000284801F0BAF90028F5D133E003E09DF8CC
:10179000000000F09FFB6946234801F0AEF90028E5
:1017A000F5D127E0FFF79CFE24E0204803F00EFA75
:1017B0001F49088005E01E480088A0F561601C49AB
:1017C00008801B480088B0F5616FF4DA12E0174812
:1017D0000838007C022806D11448093003F0EEF9DD
:1017E00000B21449088005E010480838007E01283E
:1017F00000D100BF00BF104850F824000749096815
:10180000084006490860601CC4B2062C9ADD0348F3
:101810000068002892D138BD54720008780F00206B
:10182000A4120020B4120020D41200200C140020B6
:10183000880F0020860F0020D472000810B5002009
:10184000064908600649087007210648FFF71AFC98
:10185000FFF734FFFFF7D4FE10BD0000780F002023
:10186000580E00208A0F002010B5F7480078E0B12C
:10187000F648006805F040FBB8B9F5480078FD2847
:1018800007D1F4480078401CC1B2F14802F0CEFC08
:1018900008E0EF480078552802D101F06BFE01E026
:1018A000FEF78EFF0020E8490870EB480078012819
:1018B0007ED1E7484078AA287BD1E5488078622825
:1018C00078D01EDC102876D008DC0A2874D2DFE835
:1018D00000F0733D447DBAD6F7F5F4F340286CD0A0
:1018E00008DC11286AD0122869D0202868D0302856
:1018F00062D18FE150287DD051287CD06128F7D16A
:1019000098E1A72878D014DCA22876D008DC6328D8
:1019100074D0802873D0A02872D0A128E8D1C9E162
:10192000A3286ED0A4286DD0A5286CD0A628DFD11E
:10193000E2E1A8380F28C9D2DFE800F0FDFC3E3E06
:101940003E3E3E3E3EFBFAF9F8F7F600002108461F
:1019500002F036FC02F07AFBD9E102F0B5FB002080
:10196000BE4908700120BE4908700020BD490870BA
:10197000BD490870BD490870BD490870BD4908706F
:10198000B3484079BC490880084600884FF6FF718B
:1019900001EA0020B8490880AD4800790988084369
:1019A000B5490880AA48C078B4490860084608E0EC
:1019B000B5E1ADE143E107E1A8E130E10FE119E173
:1019C0001DE10168006800F012FFA0E102F07CFB5D
:1019D0000020A2490870A2490870A2490870A249D3
:1019E0000870A24908700120A14908700020A1498F
:1019F000087009E014E118E17FE15CE14CE150E19D
:101A000054E163E172E172E1914840799A490880BA
:101A1000084600884FF6FF7101EA002096490880C9
:101A20008B48007909880843934908808848C07822
:101A30009249086008460068414290480068404268
:101A400000F0D5FE63E100208449087084490870E5
:101A50000120844908700020834908708349087078
:101A600083490870834908707948C07883490860C1
:101A7000084601680068404200F0B9FE47E10020D6
:101A800076490870764908707649087001207649D1
:101A9000087000207549087075490870754908700C
:101AA0006B48C07875490860084600684142734831
:101AB000006800F09CFE2AE153E017E015E0FFE724
:101AC00000206649087066490870664908706649D2
:101AD00008706649087066490870012065490870F9
:101AE0005B48C0786549086011E110E102F0F6FA40
:101AF00002F0EAFA0020594908705949087059491A
:101B00000870594908700120584908700020584948
:101B10000870584908704E4840795949088008466D
:101B200000884FF6FF7107E0EFE0EDE0EBE0E9E061
:101B3000E7E0E5E0E3E0E1E001EA00205049088069
:101B400043480079098808434D4908804048C078D7
:101B50004A490860084601680068404202F030FBCC
:101B6000D5E002F0BBFA02F0AFFA00203B49087062
:101B70003B4908703B4908703B49087001203B49CC
:101B8000087000203A4908703A4908703048407996
:101B90003B490880084600884FF6FF7101EA0020A3
:101BA000374908802A480079098808433449088061
:101BB0002748C078314908600846006841422F48EC
:101BC000006802F0FDFAA2E02148C0782D490870B3
:101BD0001F48007948701E484079887097E01C487B
:101BE000C0782849C8701A480079087118484079A7
:101BF00048718CE00621234801F0A6FA87E01448DA
:101C0000C178012002F0D0FB11480179022002F0D6
:101C1000CBFB7CE00E49C87802F0B4FB77E076E0BD
:101C20000421194801F090FA71E00421174801F0ED
:101C30008BFA6CE00421164801F086FA67E0042173
:101C4000144801F081FA62E0CD100020D410002089
:101C5000D8140020CC100020E21000201A0D002023
:101C6000170D0020140D0020150D0020160D00206A
:101C7000180D0020190D00202C0D0020280D00202B
:101C80002E0D0020E3100020A4100020AC10002036
:101C9000B00F0020B40F00200421214801F054FAB5
:101CA00035E02048C0782049087030E001201F4905
:101CB00008702CE02BE01B48C0781D4908701948BB
:101CC0000079487017484079887020E01548C0783E
:101CD0001749C87013480079087112484079487153
:101CE00006221449124803F0E9FC10E00FE001213C
:101CF000084602F059FB0AE009E008E007E006E0C8
:101D000005E004E003E002E001E000E000BF03E0E2
:101D10000821044802F08AFA00200749087010BD23
:101D2000B80F0020D8140020D01000203701002068
:101D3000A60B00209F0B0020E210002010B50446E7
:101D40000F48007870B905F0D1F80A300D490860E5
:101D500000200D4908700D480978445401200849B5
:101D600008700BE008480078C82807DA06480078B1
:101D7000401CC0B20449087004490C5410BD000056
:101D8000CD100020D4100020CC100020D81400204A
:101D900010B54A48007800287CD04948006805F012
:101DA000ABF8002876D147484078032813D045483F
:101DB00040780C287DD0434840780E2803D1414814
:101DC0008078012875D03F484078102804D13D48DC
:101DD0008078102800D16CE03A4840780D283BD13B
:101DE00038488078032837D13648C078012860D039
:101DF0003448C07802285CD132480079012807D1E4
:101E000030484079012803D103202F49087050E061
:101E10002C480079022807D12A484079022803D1AA
:101E200000202949087044E026480079012807D19C
:101E300024484079022803D101202349087038E062
:101E400020480079022834D11E484079012830D139
:101E500002201D4908702CE01A484078072808D154
:101E600018488078012804D11648C07817490870AE
:101E70001FE01448007855280FD1124840780128F7
:101E80000BD110488078A02805D10121022002F052
:101E90008BFA01E010E000BF0BE00A48407806280A
:101EA00007D108488078012803D10648C07808493E
:101EB000087000200149087010BD0000CF100020FC
:101EC000D8100020A01500208E0B00203501002026
:101ED0001A0D002010B504460F48007870B905F0BF
:101EE00005F80A300D49086000200D4908700D48BA
:101EF000097844540120084908700BE0084800782C
:101F0000C82807DA06480078401CC0B204490870A7
:101F100004490C5410BD0000CF100020D810002040
:101F2000CE100020A01500207FB505460C460121EB
:101F3000202001F05DFF0295ADF804400020ADF8CF
:101F40000600ADF80C008DF80E0001A90D4802F056
:101F500039FC37208DF8000000208DF801000420A6
:101F60008DF8020001208DF80300684601F0BCFAEC
:101F700001221146034802F01BFC0121014802F036
:101F8000FAFB7FBD0014004010B5FFF7D3FBFFF74D
:101F9000B1FA10BD70B504460D4602F095F8002068
:101FA00010490870104908701049087010490870ED
:101FB0001049087001201049087000200F4908706E
:101FC0000F4805800F480460006841420D480068D2
:101FD000404200F00CFC00BF024800780328FBD10F
:101FE00070BD00001A0D0020170D0020140D0020F8
:101FF000150D0020160D0020180D0020190D0020D1
:102000002C0D0020280D002070B504460D4602F06E
:102010005BF800200E49087001200E49087000206E
:102020000D4908700D4908700D4908700D49087078
:102030000D4908700D4805800D480460016800686E
:1020400000F0D5FB00BF024800780328FBD170BD2B
:102050001A0D0020170D0020140D0020150D002072
:10206000160D0020180D0020190D00202C0D002049
:10207000280D002010B50446642004F0EBFE00207B
:102080000F4908700F49087001200F49087000209F
:102090000E4908700E4908700E4908700E49087004
:1020A0000E48046001680068404200F0A0FB00BFD9
:1020B000034800780228FBD1642004F0CBFE10BD59
:1020C0001A0D0020170D0020140D0020150D002002
:1020D000160D0020180D0020190D0020280D0020DD
:1020E00070B504460D46642004F0B4FE61422046FB
:1020F00002F066F8284604F0ADFE0021084602F022
:102100005FF8642004F0A6FE70BD000010B5044620
:10211000642004F09FFE00201049087010490870E8
:102120001049087001201049087000200F490870FC
:102130000F4908700F4908700F4804600068414259
:102140000D48006800F053FB00BF044800780228E7
:10215000FBD1642004F07EFE10BD00001A0D0020AB
:10216000170D0020140D0020150D0020160D002065
:10217000180D0020190D0020280D002010B5FE4874
:10218000007812287ED2DFE800F07D092DB3F2F04E
:10219000EFEEEDEC7D7D7D7D7D7DEBEA0821F7485E
:1021A00002F044F84FF4FA7004F054FE0821F348AA
:1021B00002F03CF84FF4FA7004F04CFE0821F048AD
:1021C00002F034F84FF4FA7004F044FE0821EC48B1
:1021D00002F02CF84FF4FA7004F03CFE0220E649BD
:1021E000087070E2E748007800F088FAE648018855
:1021F000E4480078FFF708FFC82004F02BFEE3480E
:102200000078FFF737FFC82004F024FEDD49097885
:102210000A39C8B24FF47A71FFF7BCFE4FF4FA7076
:1022200004F018FED748007800F068FA4FF4FA700E
:1022300004F010FED34909780A39C8B24FF4167178
:10224000FFF7A8FE4FF4FA7004F004FECD480078C2
:1022500000F054FA4FF4FA7004F0FCFDC949097813
:102260000A39C8B24FF41671FFF794FE4FF4FA70B2
:1022700004F0F0FD1E2000F041FA4FF4FA7004F073
:10228000E9FD00E01EE2BF4909780A39C8B24FF4FF
:10229000AF71FFF77FFE4FF4FA7004F0DBFD1420FE
:1022A00000F02CFA4FF4FA7004F0D4FD02F0B0FF05
:1022B000B7480088B7490880C82004F0CBFDB5486E
:1022C000008801F01FF84FF4FA7004F0C3FDAE4827
:1022D0000188AC480078FFF797FEC82004F0BAFDEB
:1022E000AA480078FFF712FF0320A3490870EAE12B
:1022F000A9480188A548007840B2FFF7F1FE4FF4E5
:10230000FA7004F0A7FD4FF4FA7004F0A3FD4FF447
:10231000FA7004F09FFD4FF4FA7004F09BFD4FF447
:10232000FA7004F097FD4FF4FA7004F093FD9748AB
:102330000078FFF7EBFEC82004F08CFD9148007890
:1023400000F0DCF9904801888E480078FFF75CFEC9
:10235000C82004F07FFD042087490870B3E1B0E194
:102360008FE136E1B5E065E028E013E0FFE700F03B
:102370006DFA8448007800F0C1F9834801888148EB
:102380000078FFF741FEC82004F064FD05207A497B
:10239000087098E1022000F0F9FF804908704FF4BE
:1023A000FA7004F057FD79480078FFF763FEC82003
:1023B00004F050FD06207049087084E10821784837
:1023C00001F034FF4FF4FA7004F044FD4FF4FA705A
:1023D00004F040FD4FF4FA7004F03CFD4FF4FA7045
:1023E00004F038FD4FF4FA7004F034FD4FF4FA7045
:1023F00004F030FD08216B4801F018FF4FF4FA702B
:1024000004F028FD5F48007800F078F95E48018804
:102410005C480078FFF7F8FDC82004F01BFD5B481E
:102420000078FFF773FEC82004F014FD072052491E
:10243000087048E108215C4801F0F8FE002404E03F
:102440004FF4FA7004F006FD641C072CF8DB082139
:10245000554801F0EBFE002404E04FF4FA7004F05C
:10246000F9FC641C072CF8DB08214F4801F0DEFE64
:10247000002404E04FF4FA7004F0ECFC641C072C18
:10248000F8DB42480078FFF7F5FD40480078FFF799
:10249000F1FDC82004F0DEFC3A48007800F02EF987
:1024A000384909780A31C8B24FF46171FFF7ACFDC1
:1024B0003448007800F022F9334801883148007828
:1024C000FFF7A2FDC82004F0C5FC08202A490870C7
:1024D000F9E00020FEF7BAFA2C480078FFF716FE64
:1024E000C82004F0B7FC0821304801F09FFE4FF4EB
:1024F000FA7004F0AFFC08212C4801F097FE4FF46D
:10250000FA7004F0A7FC4FF4FA7004F0A3FC1D4825
:10251000007800F0F3F81C4801881A480078FFF7AB
:1025200073FDC82004F096FC18480078FFF7EEFD14
:10253000C82004F08FFC184801881448007840B285
:10254000FFF7CEFD4FF4FA7004F084FC0621184822
:1025500000F0FAFD4FF4FA7004F07CFC4FF4FA70CE
:1025600004F078FC09480078FFF784FDC82004F0E7
:1025700071FC044800781DE0370100209400002021
:102580003C0000203A0100203E0100203B010020D9
:10259000940200203201002040010020340100207C
:1025A0005400002064000020FC00002024000020D3
:1025B0000C00002000F0A2F844480188444800784C
:1025C000FFF722FDC82004F045FC092041490870AE
:1025D00079E0414801884148007840B2FFF780FD2A
:1025E00006213F4800F0B0FD4FF4FA7004F032FCD1
:1025F0003A480078FFF73EFDC82004F02BFC344831
:10260000007800F07BF83148018831480078FFF706
:10261000FBFCC82004F01EFC30480078FFF776FD74
:10262000C82004F017FC2A48007800F067F8C8209A
:1026300004F010FC4FF4FA613220FFF7ABFC0221EA
:10264000412000F013FB4FF4FA7004F003FC082162
:10265000244801F0EBFD4FF4FA7004F0FBFB082175
:10266000214801F0E3FD4FF4FA7004F0F3FB04F0AD
:102670003DFC1E4908441E490860002015490870A9
:1026800021E01B48006804F037FC18B911201149FB
:10269000087015E017480078012811D1002015496D
:1026A00008701548007855280AD113484078022848
:1026B00006D1114880780D2802D1112005490870F3
:1026C00001E000BF00BF00BF10BD00003E010020C0
:1026D0003A01002037010020400100203B0100208A
:1026E000480100200401002044000020905F010008
:1026F0002C010020CF100020A015002010B50446AA
:1027000000200D4908700D4908700D4908700D49E9
:1027100008700D4908700D49087001200C490870B7
:102720000C4804600168006800F061F800BF0248CE
:1027300000780128FBD110BD1A0D0020170D0020D4
:10274000140D0020150D0020160D0020180D00207E
:10275000190D0020280D00201CB501214FF4C07078
:1027600001F036FBF020009000208DF804000120DD
:102770008DF807006946144800F0FFF94FF47040E7
:10278000009001208DF8040000208DF80600012043
:102790008DF8070003208DF8050069460B4800F00E
:1027A000ECF92020009001208DF8040000208DF825
:1027B000060001208DF8070003208DF8050069460A
:1027C000024800F0DAF91CBD00200240001C024063
:1027D00070B505460C460026284601F0E7FB064684
:1027E00026EA0401284602F02DFE002070BD70B5D7
:1027F00005460C46002D06DB642D00DD6425052D05
:102800000BDA052509E015F1640F01DA6FF06305B5
:1028100015F1050F01DD6FF00405002C06DB642CBB
:1028200000DD6424052C0BDA052409E014F1640FA3
:1028300001DA6FF0630414F1050F01DD6FF0040499
:102840002146284601F0BCFC70BD000010B50020F8
:102850002649088026490880264908703FE0234819
:102860000088401C21490880012004F0F3FA1F4829
:102870000088B0F5487F18DD00201C4908801C48FE
:102880000088401C1A4908800846008806280BDA90
:1028900064212820FFF77EFB642004F0DBFA6E2120
:1028A0002820FFF7B1FB00E01DE013480078012865
:1028B00015D1002010490870052004F0F1FA0F48E6
:1028C00040780C280BD10D488078012807D10B489F
:1028D000C078012803D109480079064908700548E5
:1028E00000780628BBD100BF10BD0000FA09002007
:1028F000FC0900201A0D0020CF100020A015002098
:1029000010B5102000F03CF8012825D11021134803
:1029100000F09EF9E8B90021114801F02CFF1148A0
:1029200090ED000AB8EE400A0F4880ED000AD0EDA5
:10293000000A9FED0E1AB3EE040A10EE810A80ED34
:10294000000A90ED000ABCEEC00A10EE100A084919
:102950000880102000F00EF810BD000000040240B6
:1029600000100040900200208C020020F628DC3F7E
:10297000940200200149086070470000143C0140A7
:1029800001460020034A12680A400AB1012000E013
:1029900000207047143C0140002123498279002A1D
:1029A0003AD00A46126803689A430B461A600A1D19
:1029B000126803689A430B1D1A60027911440A6871
:1029C00003681A430A60184A0832126803689A4377
:1029D000154B08331A601A1D126803689A43124B8C
:1029E0000C331A604279102A0ED11A1F126803683C
:1029F0001A430D4B08331A601A1D126803681A43F4
:102A0000094B0C331A600DE00749427911440A68FA
:102A100003681A430A6005E0027911440A680368F2
:102A20009A430A6070470000003C014010B500F076
:102A3000C9FDFDF7E5FD10BDF0B507460C4616468D
:102A4000002564B106E06119384600F056F800B977
:102A500004E06D1C301EA6F10106F4D100BF28462B
:102A6000F0BDF0B507460D461646002406E0295D88
:102A7000384600F06CF800B904E0641C301EA6F182
:102A80000106F4D100BF2046F0BD30B50446002554
:102A9000204600F04AF870B1D4E90001401E81429E
:102AA00003D1A06838B1012505E0D4E90101401C3B
:102AB000814200D00125284630BD30B504460025AE
:102AC000204600F032F820B1D4E90110884200D04D
:102AD0000125284630BD70B504460D4664B1206816
:102AE000012809D90020A0602068401E60602A46A5
:102AF0002168E068FDF778FB70BD70B504460D46AF
:102B0000002685B12046FFF7C0FF60B16068401C19
:102B100060602168884201D3002060606168E068DD
:102B2000405C28700126304670BD0146002069B126
:102B30000A68012A0AD9CA6842B10B688A689A42AF
:102B400004D2D1E900329A4200D20120704770B518
:102B500004460D4600262046FFF7AFFF58B1A16896
:102B6000481CA060E06845542168A068884201D3F1
:102B70000020A0600126304670BDF0B50A46002155
:102B80000023002400BF3DE0012505FA01F315688C
:102B900005EA03049C4234D105684F000326BE4079
:102BA000B543056015794E00B540066835430560AC
:102BB0001579012D02D01579022D16D185684F00A7
:102BC0000326BE40B543856055794E00B540866802
:102BD00035438560456801268E40B54345604568AC
:102BE00096798E40B6B235434560C5684F000326DE
:102BF000BE40B543C560D5794E00B540C668354383
:102C0000C560491C1029BFD3F0BDF0B500230024D6
:102C10004D07ED0E02FA05F3CE1000F1200555F830
:102C200026504E07F70E0F26BE40B543CF1000F1D9
:102C3000200646F82750CE1000F1200555F8265002
:102C400045EA0304CE1000F1200545F82640F0BD0A
:102C50000246002013690B400BB1012000E0002068
:102C600070474183704701837047000070B5044688
:102C70000D4696204E49088000204E49088093E07A
:102C80004B480088401C4A4908800A2004F0E2F8BA
:102C900047480088502190FBF1F201FB120050B927
:102CA000422C04D10821444801F0C0FA03E0082175
:102CB000424801F0BBFA3E480088C82858DD002091
:102CC0003B4908803B480088401C3A490880084638
:102CD00000880F2800DB68E0412C06D1012D04D1CB
:102CE0000821374801F0A2FA42E0412C06D1022D1A
:102CF00004D10821334801F099FA39E0412C06D17A
:102D0000032D04D10821304801F090FA30E0412C25
:102D100006D1042D04D108212C4801F087FA27E0C0
:102D2000422C06D1012D04D10821294801F07EFA58
:102D30001EE0422C06D1022D04D10821254801F0C5
:102D400075FA15E0422C06D1032D04D10821224842
:102D500001F06CFA0CE0422C06D1042D04D10821BC
:102D60001A4801F063FA03E00821154801F05EFA01
:102D70001A480078012817D100201849087018480F
:102D80000078552810D1164840780D280CD11448E9
:102D90008078032808D11248C078012804D110484F
:102DA0000079A84200D100E06AE700BF70BD0000D2
:102DB000FA090020FC090020900900206009002089
:102DC000400900204809002050090020580900202F
:102DD000700900207809002080090020CF10002011
:102DE000A015002010B502210848FDF7E3FB0748B5
:102DF000FDF7E0FC00BF02210448FDF74BFC002872
:102E0000F9D00248FDF742FC10BD0000002001404F
:102E100070B52DED068B012001F0ECFA102001F0C9
:102E2000E9FA00F043FB0F480478407800EB0424F3
:102E30002046FDF75AFA41EC1A0B9FED0B0B53ECB1
:102E4000102BFDF7E3F941EC190BFDF772FA08EED0
:102E5000100ABDEEC80A10EE105AA8B2BDEC068BDF
:102E600070BD0000D2040020333333333333F33FDB
:102E700070B504460025002607E0FFF7B3FF0544C0
:102E8000052003F0E7FF701CC6B2A642F5DBB5FBD8
:102E9000F4F080B270BD00000146002021B1072986
:102EA0000AD008290ED10AE0074A5278064B1B784F
:102EB00002EB032290B205E0034A507802E0024A96
:102EC000107800BF00BF7047840F002010B54FF48A
:102ED00080710248FFF7BCFE10BD000000180240E0
:102EE00010B515480078012810D101F0C9F8134930
:102EF000098888421EDB00200F4908700320104912
:102F000008700021084601F05BF913E00D480078D5
:102F100001280FD101F0B4F808490988884209DB7B
:102F20000020084908700320054908700021084660
:102F300001F046F910BD0000170D00202C0D0020F7
:102F40001A0D0020180D002000B589B001212120A4
:102F500000F03EFF09220B214248FFF756FE0922EE
:102F60000C214048FFF751FE4FF4C050079002205B
:102F70008DF820008DF8210000208DF8220001201E
:102F80008DF8230007A93748FFF7F7FD4FF480605D
:102F9000079001208DF8200002208DF821000020EC
:102FA0008DF8220001208DF8230007A92E48FFF795
:102FB000E4FD002000F05EF80121480600F018FF53
:102FC0002A48FDF789FD00208DF8160001208DF8B4
:102FD000170000208DF8180001208DF8190000203E
:102FE0008DF81A0001208DF81B0000208DF81200CA
:102FF0008DF8130001208DF8140002208DF81500C3
:103000000720ADF8100004A91848FDF70EFE0020B7
:103010008DF80A008DF80B0001208DF80C000020BF
:10302000ADF80000ADF80200ADF80400ADF8060000
:10303000ADF8080001208DF80D006846FDF768FD29
:1030400012200B4908604860002048720872012075
:103050008872002202210548FDF7DEFDFEF7EEFB37
:1030600009B000BD000002400014024000640040AE
:10307000B014002010B504462CB94FF48061054807
:10308000FFF7EFFD04E04FF480610248FFF7EBFD2E
:1030900010BD00000014024010B5FEF775FF10BD12
:1030A00010B54FF4E06000F05BFAA82003F0B4FE26
:1030B00001F0E4FB00F028F8FFF74EFB02F069F89E
:1030C000FFF742FFFDF7CAFBFDF702FDFFF7AEFC7D
:1030D00053210720FEF728FFA72140F2CF7004F00C
:1030E00019F8A72140F2E73001F030FC00F073FF3F
:1030F00040F2E731A72001F0F9FB10BD014A107042
:1031000051707047840F00201CB50121202000F071
:103110005FFE4FF40060009001208DF80400002055
:103120008DF8060001208DF8070003208DF80500BA
:1031300069460348FFF721FD0120024908601CBDD4
:1031400000140240AC8242422DE9F0410746884615
:10315000002028490860092003F07CFE0120264950
:10316000C1F8AC02042003F075FE4FF40C7003F0BC
:1031700097FE00242EE0002528E0385D284100F06D
:10318000010676B900201B4908604FF4FA7003F07D
:1031900087FE01201849C1F8AC024FF4FA7003F021
:1031A0007FFE012E10D10020124908604FF4FA7002
:1031B00003F076FE01201049C1F8AC0203F04AFE8C
:1031C0004FF4487003F06CFE681CC5B2082DD4DBC8
:1031D000601CC4B24445CEDB0020064908604FF4B1
:1031E0000C7003F05DFE01200349C1F8AC02BDE89C
:1031F000F0810000AC8242420080424210B500F0F3
:103200008EFB08B1FE2010BD00F01AFA022003F078
:1032100021FE00F01BFA412000F012F908B1FE2057
:10322000F1E70120014908700020ECE74007002089
:1032300010B531480068A8B90A2003F00BFE2E48EB
:10324000006878B92D48006808B9012000E0002026
:103250002A49086000BF284800680028FBD00120E8
:10326000274908702448001D0068B0B90A2003F0FF
:10327000F1FD2148001D006878B92048001D006854
:1032800008B9012000E000201C49091D086000BFAA
:103290001948001D00680028FAD017480830006857
:1032A000C0B90A2003F0D6FD13480830006888B979
:1032B00012480830006808B9012000E000200F49DA
:1032C0000831086000BF0C48083000680028FAD0B8
:1032D00002F030FD08480C30006860B90A2003F0A5
:1032E000B9FD05480C30006828B900BF02480C3011
:1032F00000680028FAD010BD10024442B082434258
:103300006C01002010B5044655201F4908700420A8
:10331000487088700020C870642094FBF0F00A2187
:1033200090FBF1F201FB1200174908710A2094FB8F
:10333000F0F100FB114194FBF0F00A2290FBF2F354
:1033400002FB130001EB00100F49487189780E4A07
:10335000D27811440C4A127911440B4A52798818D8
:10336000C11700EB11610912A0EB0121064A91710E
:10337000BB201146C8710821104600F057FF642099
:1033800003F068FD10BD0000DE090020F8B504461A
:103390000026002C4BDD052C49DA642003F05AFD91
:1033A000FFF736FDADF80000002529E0701CC6B21D
:1033B00004212048FFF7C8FE4FF4FA7003F04AFDDD
:1033C0004FF4FA7003F046FD4FF4FA7003F042FD3B
:1033D000FFF71EFDADF80200BDF80000BDF80210B9
:1033E000884207DABDF80200ADF800000020ADF811
:1033F000020003E0C6F10500C6B203E0681CC5B2D6
:10340000042DD3DB00BF022C04D104210948FFF7AF
:103410009BFE0CE0032C04D104210748FFF794FE27
:1034200005E0042C03D104210448FFF78DFE30464B
:10343000F8BD0000AC080020B0080020B40800204F
:1034400010B50446412C25D108210846FFF7C0F9E4
:103450003D21112001F0F6FF8621172001F0F2FF37
:103460007F21262001F0EEFF1E212D2001F0EAFF32
:1034700000212C2001F0E6FF8D212A2001F0E2FF3F
:103480003E212B2001F0DEFF0A2003F0E3FC00F0D8
:10349000DDF801E0FF2010BD0020FCE702468A4273
:1034A00001D9501A7047881AFCE7000010B5FDF7E3
:1034B00099FA4720FDF76AFA00240EE0FDF71CFA9E
:1034C00008490855032C03D10120FDF73FFA02E01B
:1034D0000020FDF73BFA601CC4B2032CEEDBFDF7C5
:1034E0009DFA10BDD204002070B5002100230F22E8
:1034F000C4781CB3174C246804F4E064C4F5E06499
:10350000C4F30721C1F10404E3B20A4144789C40AA
:10351000E1B28478144021430C07210E0E4C05784B
:103520006155047804F01F050124AC4005786D1145
:10353000AD0005F1E025C5F8004109E0047804F08C
:103540001F050124AC40054D0678761145F826404C
:1035500070BD00000CED00E000E400E080E100E060
:1035600002490143024A1160704700000000FA0559
:103570000CED00E000211148C079BB281CD10F4A96
:1035800092780E4BDB781A440C4B1B791A440B4B88
:103590005B79D018C21700EB12621212A0EB022264
:1035A000D1B206488079884203D10120044A1070C4
:1035B00002E00020024A107070470000D81400207A
:1035C000E210002010B52DED048BB0EE080A16486D
:1035D00080ED000A90ED000ADFED140A20EE200ACB
:1035E00080ED000A9FED120A124880ED000A90ED6E
:1035F000000ADFED0E0A20EE200A10EE101A08462F
:10360000FCF784FE41EC190B9FED0B0B53EC102BD8
:10361000FCF7FCFD41EC180BFCF78BFE054908603C
:10362000BDEC048B10BD0000FC0500200000C8426A
:1036300000CC0D41F8050020000000000070A740FC
:1036400010B503211420FFF7C3F810BD10B51420E6
:1036500000F0ACFC044604F0030018B90321142068
:1036600000F00AFE10BDF0B587B00546002708211E
:103670000846FFF7ADF800210D2001F0E3FE8021A0
:103680000E20FFF7A5F893208DF8040020208DF878
:10369000050006A801AB022201A900900C2000F051
:1036A00051F8064686B9002407E001A8005D2855B8
:1036B00001A8005D4740601CC4B2042CF5DB01A8E2
:1036C000005DB84200D0FE2680210E2000F0D4FD1F
:1036D000304607B0F0BD2DE9F04387B006460F46EF
:1036E000904699468DF804608DF80570002406E038
:1036F00018F8041001AAA01C1154601CC4B2062CB6
:10370000F6DB002407E019F8041001AA04F1080010
:103710001154601CC4B2062CF5DB06A801AB0C22C8
:1037200001A900900E2000F00DF805462DB90820E3
:1037300000F03CFC00F0080000B9FE25284607B068
:10374000BDE8F0832DE9FE4F0646884691469A462D
:10375000DDF830B0FE2002900020019000900C2E89
:1037600006D00E2E09D1122001901020009005E005
:10377000772001903020009000E000BF00BF01984A
:1037800040F08001022001F05DFE80210420FFF75F
:103790001FF80021012001F055FE80210A2000F0D1
:1037A0006BFD002505E018F80510092001F04AFE20
:1037B0006D1C4D45F7D33146012001F043FE0C2E20
:1037C00003D180210D2000F057FD4FF4167500BF86
:1037D000042000F0EBFB04466D1E35B104F001003F
:1037E00018B9009820400028F2D080210D20FEF763
:1037F000EFFF95B3062000F0D9FB00F01B0068BB7B
:10380000002002900198204000F0010008B1FF2044
:1038100002900C2E24D10A2000F0C8FB04460C2094
:1038200000F0C4FB00F007072FB1601E07EBC000DB
:10383000CBF8000002E0E000CBF8000004B901245E
:10384000122C00DD1224002505E0092000F0AEFB5B
:103850000AF805006D1CA542F7D301E0FE20029096
:1038600080210C2000F008FD0021012001F0EAFD7C
:103870000298BDE8FE8FF0B587B005460E463020B1
:103880008DF804008DF805500DF10602022101A803
:10389000FDF7C0FB06A801AB042201A900900C2093
:1038A000FFF750FF074667B90698902809D1002412
:1038B00004E001A8005D3055601CC4B2102CF8DB98
:1038C00000E0FE27384607B0F0BD70B588B0054669
:1038D0000C4608210846FEF77BFF07210D2001F06A
:1038E000B1FD0321142000F0C7FC8DF8085007A893
:1038F00002AB012202A900900C20FFF723FF06462D
:103900004EB90798102806D19DF8080020709DF840
:103910000900607000E0FE26304608B070BD10B5AA
:1039200000F025FB08B1FE2010BD0F21012001F0A1
:1039300089FD3D21112001F085FD1E212D2001F082
:1039400081FD00212C2001F07DFD8D212A2001F038
:1039500079FD3E212B2001F075FD4021152001F05D
:1039600071FD0020E0E770B588B0054693208DF822
:10397000080070208DF8090000208DF80E0000244A
:103980000BE0295D02AAA01C11549DF80E00295DD0
:1039900048408DF80E00601CC4B2042CF1DB0DF120
:1039A0000F02072102A8FDF735FB08210846FEF7A4
:1039B0000FFF07A802AB092202A900900C20FFF715
:1039C000C1FE064626B90798182801D1002600E056
:1039D000FE26304608B070BDF0B587B006460F46EB
:1039E000A0208DF804008DF805600DF1060202217B
:1039F00001A8FDF70FFB06A801AB042201A9009066
:103A00000C20FFF79FFE054645B90698042805D10E
:103A10009DF8040000F00F000A2800D0FE250DBB21
:103A2000002404E0385D01A90855601CC4B2102CC4
:103A3000F8DB05AA102101A8FDF7ECFA06A801ABF6
:103A4000122201A900900C20FFF77CFE054645B923
:103A50000698042805D19DF8040000F00F000A28FC
:103A600000D0FE25284607B0F0BD000010B50320A9
:103A7000FFF7FEF9514908800846008800F0C8FCAD
:103A80004E4908804E4801884C480088FFF706FDE3
:103A90004C4908704A480088F0BB4B48D0ED000AFA
:103AA0004648008800EE100AB8EE400A20EE800A70
:103AB000BCEEC00A10EE100A404908800846008893
:103AC00000EE100AB8EE400A4048D0ED000AB4EE0D
:103AD000E00AF1EE10FA03D200203D49087016E02A
:103AE0003648008800EE100AB8EE400A3748D0ED9C
:103AF000000A30EE600ABCEEC00A10EE100A34492B
:103B0000087008460078642801DD64200870304899
:103B100000783049087000E004E008460178012090
:103B200000F02AFB254800882549088025480078B0
:103B30000A2842DD2448D0ED000A2048008800EE23
:103B4000100AB8EE400A20EE800ABCEEC00A10EE61
:103B5000100A1A4908800846008800EE100AB8EEDC
:103B6000400A1A48D0ED000AB4EEE00AF1EE10FA6D
:103B700003D200201649087016E01048008800EEB5
:103B8000100AB8EE400A1148D0ED000A30EE600A83
:103B9000BCEEC00A10EE100A0D4908700846007805
:103BA000642801DD6420087009480078094908701C
:103BB00008460178012000F0DFFA10BD020600205F
:103BC0000406002006060020F8050020FC05002061
:103BD00000060020F405002070B504460D4620467E
:103BE000E11704EB91718910032202EB8101CEB23F
:103BF00000203A4908603A49C1F8B402374908310F
:103C00000860091D08600120344908603548FFF745
:103C10002AFD002860D101203049091D0860314883
:103C2000FFF7A1FE002857D101202C490831086078
:103C30002C4B2D4A31466020FFF74DFD00284BD11B
:103C4000012026490C3108600A2094FBF0F00A217B
:103C500090FBF1F201FB12003030244988720A20F7
:103C600094FBF0F100FB114030302049C8720E2166
:103C70001E4800F097FAB44204D100250D211CA083
:103C800000F090FA022D01D0032D08D11C492046E6
:103C9000FFF7A2FE18B911211AA000F083FA012D36
:103CA00001D0032D14D11C492046FFF7E4FD78B95B
:103CB00010211AA000F076FA0E211CA000F072FA72
:103CC0001021154800F06EFA02211BA000F06AFADC
:103CD000022119A000F066FA70BD0000B0824342D4
:103CE000008043424307002057070020630700205D
:103CF00041444452204552524F52210A00000000D4
:103D00004707002057524954455F52464944202DE9
:103D1000204F4B0A00000000C811002052454144CA
:103D20005F52464944202D204F4B0A0044415441E4
:103D3000284153434949293A0A00000010B586B08A
:103D400004460121084600F043F80121102000F04C
:103D50006FF8072209211B48FEF757FF07220A21A7
:103D60001848FEF752FF4FF4C060049002208DF80F
:103D7000140000208DF8160001208DF81700032094
:103D80008DF8150004A90F48FEF7F7FE00940020F7
:103D9000ADF80C000C20ADF80A000020ADF80800CA
:103DA000ADF80600ADF804006946074801F0D6F802
:103DB0000121054801F069F800200449087006B0A7
:103DC00010BD00000000024000100140400700202C
:103DD00029B1064A12680243044B1A6004E0034A00
:103DE00012688243014B1A6070470000303802406D
:103DF00029B1064A12680243044B1A6004E0034AE0
:103E000012688243014B1A6070470000403802403C
:103E100029B1064A12680243044B1A6004E0034ABF
:103E200012688243014B1A6070470000203802403C
:103E300029B1064A12680243044B1A6004E0034A9F
:103E400012688243014B1A607047000044380240F8
:103E500029B1064A12680243044B1A6004E0034A7F
:103E600012688243014B1A607047000024380240F8
:103E7000F0B5002100220024022500260223324F43
:103E80003F6807F00C0121B1042905D0082937D17A
:103E900005E02E4F076036E02D4F076033E02A4FD4
:103EA0003F1F3F68C7F38056274F3F1F3F6807F00B
:103EB0003F036EB1264FB7FBF3F7DFF88CC0ACF1D0
:103EC000040CDCF800C0CCF3881C07FB0CF40CE0FD
:103ED0001E4FB7FBF3F7DFF870C0ACF1040CDCF851
:103EE00000C0CCF3881C07FB0CF4174F3F1F3F6842
:103EF000C7F301477F1C7D00B4FBF5F7076002E0C4
:103F0000124F076000BF00BF0F4F3F6807F0F0017E
:103F10000909104F7A5C0768D74047600A4F3F682D
:103F200007F4E051890A0B4F7A5C4768D7408760F5
:103F3000054F3F6807F46041490B064F7A5C4768BC
:103F4000D740C760F0BD0000083802400024F400EC
:103F500040787D01E80B00200148007870470000A0
:103F60004007002010B5142000F020F810BD38B52F
:103F7000FE2500200090002400BF12E0552000F034
:103F800061F942F21071684600F032F838B95520F4
:103F900000F058F9642002F05DFF002503E0601C8A
:103FA00084B2642CEADB00BF68B238BD38B5044681
:103FB00004F03F0040F08004204600F043F942F254
:103FC0001071684600F014F805460DB1FF2038BDA9
:103FD0009DF80000FBE710B54FF41650FFF7AEFE5A
:103FE0004FF4FA7002F036FFFFF708F910BD000039
:103FF00070B504460D4602F079FF4FF4FA61B5FB47
:10400000F1F146180AE00A48008800F0200028B1C3
:10401000074801F00DF82070002070BD304602F016
:104020006BFF0028EFD1034908700120F5E700007D
:10403000001001404007002010B5FEF751FF03F0CB
:10404000B7F803F097F800F0B1FC10BD0020064966
:104050000870064908700649087006490870064944
:104060000870064908707047140D0020150D0020D7
:10407000170D0020180D0020190D00201A0D00202A
:104080000F48B0F900000F4AB2F90020904207DD56
:104090000B48B0F900000B4AB2F90020811A06E083
:1040A0000848B0F90000064AB2F90020811AB1F5BB
:1040B000004F02D94FF6FF70411A88B270470000D6
:1040C000860F0020340D00200248B0F9000002499C
:1040D00008807047860F0020340D002002480088B9
:1040E0000249088070470000880F0020360D00202C
:1040F0001CB58020009000208DF8040001208DF870
:10410000070069460148FEF738FD1CBD0004024067
:104110001CB58020009001208DF8040000208DF84F
:10412000060003208DF8050069460248FEF725FDCC
:104130001CBD00000004024030B500228B071C0F9C
:104140000F2303FA04F20B4B8C1053F824309343E3
:10415000084C8D1044F8253023468C1053F8243039
:104160008C07240F00FA04F42343024C8D1044F80A
:10417000253030BD083801407CB505460C4603208B
:104180008DF8040001208DF805008DF80640002010
:104190004FF4F073032201A900901046FDF764FA72
:1041A0007CBD000070B504460D462A4621460348F2
:1041B000FEF757FC642002F04DFE70BDA4120020F3
:1041C0007CB504460D46E0B28DF80400E0B28DF8EF
:1041D0000500E8B28DF80600E8B28DF80700FDF79B
:1041E00011F978B10020034620220421009001A893
:1041F000FDF7CEF800202023024601A90090FDF72C
:1042000033FA06E000202023042201A90090FDF7E4
:104210002BFA7CBD70B504460D462A46214602485D
:10422000FEF71FFC70BD0000C412002070B50446EC
:104230000D462A4621460248FEF713FC70BD0000D9
:10424000E412002010B504460A48008800BF09485F
:10425000008800F080000128F9D02146054800F0D0
:10426000ECFE00BF4021034800F01BFE0128F9D1FD
:1042700010BD00000010014070B505460C46002638
:104280002846FFF793FE064646EA0401284601F059
:10429000D9F8002070BD00000CB5002001900090FE
:1042A0003448006840F480303249086000BF31482B
:1042B000006800F4003000900198401C01900098C4
:1042C00018B90198B0F5A04FF1D12A48006800F460
:1042D000003010B10120009001E000200090009813
:1042E000012846D123484030006840F080502149E1
:1042F000403108602048006840F440401E49086092
:104300001C48083000681B490831086008460068EE
:1043100040F4004008600846006840F4A05008607F
:104320001648091F0860081F006840F08070091FC8
:10433000086000BF0F48006800F000700028F9D046
:1043400040F205700E4908600A480830006820F005
:1043500003000849083108600846006840F0020080
:10436000086000BF03480830006800F00C0008280F
:10437000F8D10CBD003802400070004019544007CD
:10438000003C024010B50446012C04D1410305480D
:10439000FEF767FC05E024B94FF400510148FEF731
:1043A00062FC10BD0008024070B505460C46012DA8
:1043B00002D0022D1AD10CE02CB14FF480610C48D0
:1043C000FEF74FFC04E04FF480610948FEF74BFC18
:1043D0000CE02CB14FF400610548FEF742FC04E00C
:1043E0004FF400610248FEF73EFC00BF00BF70BD05
:1043F000001C024010B50446FCF7F4FA4620FCF716
:10440000C5FA2046FCF7C2FAFCF708FB10BD000015
:1044100010B5024600230B48828200210BE0094CB4
:10442000481C34F8100024F81100204630F8110020
:10443000184483B2491C0A29F1DB0A2093FBF0F0EF
:1044400080B210BD3C1200202DE9F04106464FF02D
:104450000008FEF7DDFC594908800846078801205E
:1044600000F0AEF84FF4FA7002F0F4FC4FF4FA707A
:1044700002F0F0FCFEF7CCFC50494880012000F02F
:104480009FF84FF4FA7002F0E5FC4FF4FA7002F076
:10449000E1FCFEF7BDFC49498880012000F090F85E
:1044A0004FF4FA7002F0D6FC4FF4FA7002F0D2FC2E
:1044B000FEF7AEFC4149C880012000F081F80421DC
:1044C0003E4802F0F5FA002508E03C4830F81500B7
:1044D000B84201D1681CC4B2681CC5B2042DF4DB1B
:1044E0004FF4FA7002F0B6FC4FF4FA7002F0B2FC2E
:1044F000012E06D0022E1BD0032E2FD0042E59D110
:1045000042E0012C11D0022C04D1032000F058F815
:10451000A0460AE0032C03D1022000F051F804E089
:10452000042C02D1012000F04BF84FF0010842E0CA
:10453000012C03D1012000F043F80CE0022C0AD03A
:10454000032C03D1032000F03BF804E0042C02D13B
:10455000022000F035F84FF002082CE0012C03D1C6
:10456000022000F02DF80CE0022C03D1012000F015
:1045700027F806E0032C04D0042C02D1032000F01D
:104580001FF84FF0030816E0012C03D1032000F0C0
:1045900017F80CE0022C03D1022000F011F806E01D
:1045A000032C03D1012000F00BF800E000BF4FF016
:1045B000040800E000BF00BFBDE8F081900B0020C0
:1045C00010B50446012C04D0022C08D0032C12D1C3
:1045D0000BE00C200D498870F320C8700CE0182007
:1045E0000A498870E720C87006E05E200749887095
:1045F000A120C87000E000BF00BF04210348FEF7FF
:10460000A3FD642002F026FC10BD0000740B002006
:10461000042808D14FF0E021096941F004014FF06E
:10462000E022116107E04FF0E021096921F0040167
:104630004FF0E0221161704710B51548006840F452
:104640007000134908601348006840F001001149E8
:10465000086000200F49083108600E4800680E49C4
:1046600008400C4908600D48091D0860081F0068D3
:1046700020F48020091F0860002006490C310860E2
:10468000FFF70AFE4FF0006001498039086010BD55
:1046900088ED00E000380240FFFFF6FE10300024F5
:1046A00010B50121054800F072F8012801D1FFF78B
:1046B000C3FC0121014800F05BF810BD004001403F
:1046C00010B50121074800F062F8012804D106481E
:1046D0000068401C044908600121024800F048F8C5
:1046E00010BD000000440140E00B002010B5012186
:1046F000880700F04CF801280CD109480088401CBC
:1047000007490880084600880A2803DB0020088043
:1047100000F0D6FD0121880700F02AF810BD000046
:10472000D60B002010B50121074800F030F8012811
:1047300004D106480068401C044908600121024871
:1047400000F016F810BD000000100040900200209C
:1047500010B50121054800F01AF8012801D1FEF733
:104760009BFC0121014800F003F810BD001400403B
:10477000CA430282704721B1028842F001020280DE
:1047800004E002884FF6FE731A400280704730B58D
:104790000246002000230024158A05EA01039589BA
:1047A00005EA010413B10CB1012000E0002030BD86
:1047B0001AB183890B43838102E083898B43838110
:1047C0007047000000220288184B98420ED0184B08
:1047D00098420BD0B0F1804F08D0164B984205D0CC
:1047E000154B984202D0154B984204D14FF68F7367
:1047F0001A404B881A43124B984207D0114B9842EB
:1048000004D04FF6FF431A400B891A4302804B68CD
:10481000C3620B880385054B984202D0044B984233
:1048200001D18B7A03860123838270470000014007
:10483000000401400004004000080040000C00405B
:1048400000100040001400401CB501210420FFF7B7
:10485000BFFA4FF40050009001208DF804008DF84D
:10486000070069460448FEF788F94FF400510248F2
:10487000FEF7F9F91CBD00000008024010B500F079
:1048800005F8FFF7E1FF00F017F810BD1CB5012196
:104890004020FFF79DFA4FF48070009000208DF8C3
:1048A000040001208DF8070069460248FEF765F90B
:1048B0001CBD0000000002401CB501218020FFF754
:1048C00087FA4FF44060009001208DF804008DF8C5
:1048D000070069460448FEF750F94FF4406102486A
:1048E000FEF7C1F91CBD0000001C02407FB5054663
:1048F0000C4601210846FFF77BFA0295ADF804400B
:104900000020ADF80600ADF80C008DF80E0001A9EE
:104910004FF08040FFF756FF1C208DF8000000206C
:104920008DF8010009208DF8020001208DF80300A8
:104930006846FEF7D9FD012211469007FFF738FFC0
:1049400001218807FFF717FF7FBD00007FB50546EF
:104950000C4601214804FFF76BFA0295ADF80440BC
:104960000020ADF80600ADF80C008DF80E0001A98E
:104970000D48FFF727FF19208DF8000000208DF863
:10498000010006208DF8020001208DF80300684622
:10499000FEF7AAFD012211460348FFF709FF012196
:1049A0000148FFF7E8FE7FBD0044014010B50B4809
:1049B0000078012806D10820FEF76EFAC4B220461E
:1049C00000F010F806480078012806D10820FEF70C
:1049D00063FAC4B2204601F0F7FD10BD190D0020A6
:1049E000D30B002010B5044654B900206C49087060
:1049F00001206C49087000210846FFF7E1FB86E0C2
:104A0000E72C08D168480068684908606648006873
:104A1000674908607BE0F72C01D0F32C0AD162488B
:104A200000681430614908605F48006828386049B0
:104A300008606CE0FB2C01D0F92C0AD15A480068C0
:104A400028305A490860584800683C38584908607E
:104A50005DE0FD2C01D0FC2C0AD1534800683C30AD
:104A600052490860504800685A38514908604EE081
:104A7000FE2C0AD14C48006850304C4908604A4826
:104A8000006878384A49086041E0EF2C01D0CF2C0B
:104A90000AD145480068143045490860424800681A
:104AA00028384249086032E0DF2C01D09F2C0AD11F
:104AB0003D48006828303E4908603B4800683C3863
:104AC0003A49086023E0BF2C01D03F2C0AD1364878
:104AD00000683C3036490860334800685A3833492A
:104AE000086014E07F2C0AD12F480068503030490C
:104AF00008602D48006878382C49086007E02A488B
:104B000000682A490860284800682949086029483F
:104B10000078012813D104F0180018280FD104F0F0
:104B2000800010B104F0010048B900201C49087051
:104B300001201C49087000210846FFF741FBFF2CAB
:104B400020D11948006819490860174800681849B9
:104B5000086019480088B0F5966F0DDD00201649F1
:104B6000088000210846FFF72BFB00200C49087045
:104B700004200C49087008E00F480088401C0E49CA
:104B8000088002E000200C4908800548007828B120
:104B90000748016805480068FDF729FE10BD0000C0
:104BA000190D00201A0D0020280D0020200D0020D6
:104BB000240D0020300100201C0D002002460021A1
:104BC0005178107840EA01210846704702460021DA
:104BD0001178507840EA01210846704710B5024824
:104BE00000F030FA10BD00009C11002010B51248F2
:104BF000007800BB40F22551104800F05FF9012811
:104C000019D10E4800F014FA0D490E4A1278885452
:104C10000C480078401C0B490870084600780228B0
:104C200004DB0020087001200349087040F2255180
:104C3000024800F01BF910BDB20300200010014033
:104C4000B4030020B303002010B540F225511848EA
:104C500000F034F901282AD11648007890B902F002
:104C600045F90A30144908600020144908701048BA
:104C700000F0DEF91249114A1278885401200D49DA
:104C800008700FE00D480078C8280BDA084800F0DB
:104C9000CFF9C1B209480078401CC0B2074A107071
:104CA000074A115440F22551014800F0DFF810BDC9
:104CB00000440040CD100020D4100020CC10002073
:104CC000D814002000B587B001210420FFF780F838
:104CD00001212020FFF7ACF8082206212348FDF728
:104CE00094FF082207212148FDF78FFFC02005907F
:104CF00002208DF8180000208DF81A0003208DF88E
:104D0000190001208DF81B0005A91848FDF735FF93
:104D10004FF4E13001900020ADF810000C20ADF808
:104D20000E000020ADF80C00ADF80A00ADF8080048
:104D300001A90F4800F012F9012240F225510C4858
:104D400000F0E6F847208DF8000000208DF8010003
:104D50008DF8020001208DF803006846FEF7C4FBC1
:104D60000121034800F091F807B000BD000802409F
:104D70000014014010B540F22551284800F09EF87B
:104D8000002845D0254800F053F9254908702548EA
:104D9000007878B908460078552839D10120214992
:104DA00008701F48007820490870002048708870FB
:104DB000C8702DE01B480078012807D1022019494E
:104DC0000870174800781849487021E015480078A5
:104DD000022807D1032013490870114800781249AE
:104DE000887015E00F48007803280AD100200D498B
:104DF00008700B4800780C49C87001200B490870F6
:104E000006E0002007490870084908700649087044
:104E100040F22551014800F029F810BD001401406E
:104E20008D0800208E0800208F08002097080020A1
:104E300010B504462146054800F0FFF800BF802168
:104E4000024800F02EF80028F9D010BD00140140EF
:104E500070B505460E46002400BF04E0285DFFF74C
:104E6000E7FF601CC4B2B442F8DB70BD10B500228D
:104E7000002340F66A14A14200D100BF0A120124A7
:104E80009440A3B2DC43048010BD21B1828942F476
:104E90000052828104E082894DF6FF731A408281BC
:104EA000704702460020B1F5007F00D100BF138893
:104EB0000B400BB1012000E00020704770B50246A6
:104EC000002400230025002040F66A16B14200D1DC
:104ED00000BFC1F3421501F01F03012606FA03F3D8
:104EE000012D02D19689334006E0022D02D1168AA7
:104EF000334001E0968A33400C12012606FA04F48E
:104F00001688344013B10CB1012000E0002070BDC0
:104F1000F0B50346002400260025002040F66A175D
:104F2000B94200D100BF1846C1F3421401F01F0678
:104F3000012707FA06F5012C01D10C3004E0022C00
:104F400001D1103000E014301AB107682F43076018
:104F500002E00768AF430760F0BD00002DE9FF479E
:104F600005460E460024A14600BFA046B08900B108
:104F700000BF2C8A24F44054F08804432C82AC896E
:104F800041F20C608443B088318908437189084339
:104F90000443AC81AC8A24F44074B0890443AC82ED
:104FA0006846FEF765FF2048854202D01F488542CB
:104FB00002D1DDF80C9001E0DDF80890A88900F43A
:104FC000004040B109EBC90000EB0910316849000D
:104FD000B0FBF1F707E009EBC90000EB09103168FD
:104FE0008900B0FBF1F76420B7FBF0F00401200961
:104FF000642101FB1078A88900F4004040B1322000
:1050000000EBC800B0FBF1F000F00700044308E03B
:10501000322000EB08106421B0FBF1F000F00F002B
:1050200004432C81BDE8FF870010014000140140BB
:1050300001468888C0F308007047C1F308028280E7
:105040007047000010B5044694F82810374A52F80B
:10505000210040F22771FFF731FF18B3E068401CD0
:10506000E060D4E90210884209D2E1682068405C1F
:1050700094F828102D4A52F82110888009E094F8FD
:1050800028102A4A52F82100002240F22771FFF727
:105090003FFF94F82810254A52F8210040F227716A
:1050A000FFF7E4FE94F82810204A52F8210040F25D
:1050B0002551FFF703FF30B301F018FF606294F849
:1050C00028001A4951F8200080881949087094F87E
:1050D0002810164A52F8210040F22551FFF7C6FE6B
:1050E000D4E90610884207D211480178E269501CC1
:1050F000E0616069815406E00E49206A884202D26C
:10510000206A401C206294F82810084A52F82100B6
:105110000821FFF7C6FE38B194F82800034951F87A
:10512000200080880449087010BD00000C06002093
:1051300008060020F0FFFF7F090600200EB54FF49F
:10514000C060FEF70DFA01218803FEF771FE04210D
:105150000120FEF7F1FF1020019000208DF80800DB
:105160000C208DF8090001208DF80A0001A8FDF738
:1051700013FC0A208DF8000000208DF801000720A4
:105180008DF8020001208DF803006846FEF7ACF9A7
:105190000EBD10B500F008F85321092000F064F8A6
:1051A000FFF7CCFF10BD00001CB501210320FEF766
:1051B0000FFE00220E211448FDF727FD00220D21CD
:1051C0001148FDF722FD4FF40040009001208DF8BA
:1051D000040000208DF8060001208DF80700032050
:1051E0008DF8050069460848FDF7C7FC10200090BF
:1051F00000208DF8040001208DF80700694603485F
:10520000FDF7BBFC1CBD0000000002400004024092
:1052100010B5012010490860032001F041FE002074
:105220000E49C1F8BC0201210D48FFF7A4FA012183
:105230000B48FFF79DFA00200A4908601E2001F084
:1052400009FE012004490860052001F003FE002149
:105250000348FFF790FA10BDBC02404200004042F4
:1052600000100040900200207FB505460C46012149
:105270001020FEF7BDFD0295ADF804400020ADF80A
:10528000060001A90D48FFF79DFA36208DF80000B1
:1052900000208DF8010008208DF8020001208DF813
:1052A00003006846FEF720F9012211460348FFF784
:1052B0007FFA00210148FFF75EFA7FBD0010004031
:1052C00010B5002452480078012823D151480078B5
:1052D0005528FAD14F48407801281CD100BF4D48CD
:1052E0008078092815D2DFE800F01405080B0E14A9
:1052F0001410120044F080040CE044F0400409E073
:1053000004F0B00406E0002404E0002402E00024DD
:1053100000E000BF76E03F48407802282FD104F03B
:10532000F0043C488078062827D2DFE800F0260306
:105330000A11181F092138A0FEF734FF44F00204B7
:105340001CE0092136A0FEF72DFF44F0030415E010
:10535000092135A0FEF726FF44F004040EE00921E0
:1053600033A0FEF71FFF44F0050407E0092132A037
:10537000FEF718FF44F0060400E000BF42E02548B5
:10538000407803281ED123488078052814D008DCF3
:1053900001280DD002280CD003280BD004280FD1EF
:1053A00009E0102809D0112808D0122808D106E0F9
:1053B00007E006E005E004E003E002E001E000E0D1
:1053C00000BF1FE01348407804281BD111488078A3
:1053D000072815D2DFE800F0140405060B0F1300B0
:1053E0000FE00EE016490878FDF788F909E05A2029
:1053F000FCF740FE05E05A20FCF788FE01E000E0E3
:1054000000BF00BF002002490870204610BD000008
:10541000970800208F08002049443A20320A0000F3
:1054200049443A20330A000049443A20340A000033
:1054300049443A20350A000049443A20360A00001F
:10544000BC0B002070B504460D462946204600F0EE
:1054500001F870BDF8B504460D46032704F03F047B
:10546000002714E02046FEF7EDFE42F21071684678
:10547000FEF7BEFD064646B99DF80000844203D102
:105480002846FEF7DFFE04E00226781CC7B2032F91
:10549000E8DB00BF3046F8BD70B504460D46552028
:1054A000114908700620487008468470C5700020B5
:1054B0000871487189780C4AD27811440A4A1279E5
:1054C0001144094A52798818C11700EB1161091279
:1054D000A0EB0121044A9171BB201146C87108213B
:1054E0001046FEF7A3FE70BD9D0800206549884266
:1054F0000DD15521634A1170062151700021917020
:10550000D170117151719171BB21D171B9E05E49B6
:10551000884205D100215C4A117051709170B0E051
:105520005A49884205D10021584A11705170917032
:10553000A7E05749884204D10021554A11705170A3
:105540009FE05449884209D1FD21524A117000213F
:105550001170012111700021117092E04E498842B2
:105560000DD155214C4A11700321517000219170C9
:10557000D170117151719171BB21D17181E0474995
:1055800088420DD15521454A1170042151700021E6
:105590009170D170117151719171BB21D17170E015
:1055A0003F4988420DD155213D4A11700721517064
:1055B00000219170D170117151719171BB21D17124
:1055C0005FE0384988420CD15521354A11700021DD
:1055D00051709170D170117151719171BB21D17164
:1055E0004FE0314988420ED155212F4A11700A21CE
:1055F0005170012191700021D1701171517191711F
:10560000BB21D1713DE0294988420DD15521274A5E
:1056100011700C21517000219170D1701171517174
:105620009171BB21D1712CE0214988420CD15521C7
:105630001F4A1170002151709170D1701171517118
:105640009171BB21D1711CE01A49884209D1FF2117
:10565000184A1170002151709170D17011715171FF
:105660000FE0154988420CD15521134A11700221CF
:10567000517000219170D170117151719171BB21E4
:10568000D17170471A0B0020860B0020890B002077
:105690008C0B0020220B0020260B00202E0B00205C
:1056A0003E0B00204C0B0020540B00205C0B002014
:1056B000640B0020780B00207E0B002010B5034601
:1056C000002002E01C5C0C54401C9042FADB10BD30
:1056D0007CB50020C8490870C8490880C8490880BE
:1056E000C8480078142820D2DFE800F01F0A2040C4
:1056F0006A82A3CBE1FE1F1F1F1F1F1FFDFCFBFAC9
:10570000012000F025FEC04908780022BF49098821
:1057100000F0BEF900F0AEFABD490878BD4909882D
:1057200000F044FE0220B749087062E1412001F018
:1057300003F90120B84908704FF4FA7001F08AFBB0
:105740004FF4FA7001F086FBB3480178412001F074
:10575000B5F800F08FFAB1480188B148007840B23E
:1057600000F058FA0320A749087042E118E002212E
:10577000412000F0CDFEAB48008801F06BFBA9484A
:10578000008801F067FB9D480088401C9B49088009
:105790003C2001F05FFB99480088142800DB03E0FF
:1057A00095480078A328E2D100BF9C4801889C4816
:1057B000007840B200F046FA04209249087018E1DF
:1057C00091490878FCF79AFF9748008801F042FB5E
:1057D0008D49087801228D49098800F059F9012086
:1057E00000F076FD9149088005208649087000E1A7
:1057F00010E08C48008801F02DFB80480088401C98
:105800007E4908803C2001F025FB7C480088022866
:1058100000DB03E078480078A728EAD100BF84497C
:1058200008788449098800F015FE0620754908703B
:10583000DFE004251DE0804800F0DEFB4FF49670A9
:1058400001F008FB00F000FD044614B9681EC5B263
:105850000FE0012C04D14FF4967001F0FBFA09E03F
:105860003DB9012000F002FC4FF4967001F0F2FA0D
:1058700000E0E0E700BF00F0FDF907206149087093
:10588000B7E0664801886648007840B200F0DAF96F
:105890006648008800F068FE60480188604800782B
:1058A00040B200F0CFF9082056490870A1E0062167
:1058B000282000F075FF54490878012253490988CF
:1058C00000F0E6F80621282000F06AFF4E4908782B
:1058D00001224E49098800F0DBF84D49087804E0C0
:1058E00084E05BE046E029E007E04A49098800F0EF
:1058F0005DFD0920434908707BE0022400F0BAF9FD
:105900004B4908784B49098800F0A4FD2046FEF772
:105910009BFD4448008801F09DFA3D4908783D49C7
:10592000098800F043FD3D4801883D48007840B2B9
:1059300000F070F91020334908705AE03F4800F039
:105940006FFD04463EA103C9CDE900018DF8054075
:10595000684600F07BF83348008801F07BFA2F4856
:1059600001882F48007840B200F054F911202549F1
:1059700008703EE03C2000F0A9FD23490878012290
:105980002249098800F084F82149087821490988CA
:1059900000F00CFD12201B4908702AE0412000F0A5
:1059A000DBFB012803D00121412000F01DFA4FF458
:1059B000FA7001F04FFA00F0DDF80221412000F00A
:1059C00013FA012001F04CF84FF4967001F042FAFE
:1059D000002000F0BDFC4FF4967001F03BFA00206F
:1059E00000F0B6FC13200749087002E000201649B9
:1059F000087000BF7CBD0000980B00209A0B0020AF
:105A00009C0B0020D20B0020BC0B0020D00B0020F0
:105A1000C80B0020CA0B00209E0B0020C20B0020E8
:105A2000BE0B0020C60B0020C40B0020D80B0020AA
:105A3000CC0B0020CE0B00209F0B0020AC0B0020D5
:105A400003051445DE0000006C01002010B504467B
:105A500020780E49087060784870A0788870E078E7
:105A6000C870207908716079487106210748FDF7F0
:105A70006BFB4FF4FA7001F0EDF906210348FDF7D6
:105A800063FB642001F0E6F910BD0000460B002026
:105A900070B506460D461446002013490870134998
:105AA00008701349087013490870134908701349A6
:105AB0000870134908701348066001680068FCF715
:105AC00096FE284601F0C6F900210846FEF778FB4D
:105AD000012C04D10C48008801F0BCF903E014B992
